{
  "contractName": "ERC721",
  "abi": [
    {
      "anonymous": false,
      "inputs": [
        {
          "indexed": true,
          "internalType": "address",
          "name": "owner",
          "type": "address"
        },
        {
          "indexed": true,
          "internalType": "address",
          "name": "approved",
          "type": "address"
        },
        {
          "indexed": true,
          "internalType": "uint256",
          "name": "tokenId",
          "type": "uint256"
        }
      ],
      "name": "Approval",
      "type": "event"
    },
    {
      "anonymous": false,
      "inputs": [
        {
          "indexed": true,
          "internalType": "address",
          "name": "from",
          "type": "address"
        },
        {
          "indexed": true,
          "internalType": "address",
          "name": "to",
          "type": "address"
        },
        {
          "indexed": true,
          "internalType": "uint256",
          "name": "tokenId",
          "type": "uint256"
        }
      ],
      "name": "Transfer",
      "type": "event"
    },
    {
      "inputs": [
        {
          "internalType": "address",
          "name": "_owner",
          "type": "address"
        }
      ],
      "name": "balanceOf",
      "outputs": [
        {
          "internalType": "uint256",
          "name": "",
          "type": "uint256"
        }
      ],
      "stateMutability": "view",
      "type": "function"
    },
    {
      "inputs": [
        {
          "internalType": "uint256",
          "name": "_tokenId",
          "type": "uint256"
        }
      ],
      "name": "ownerOf",
      "outputs": [
        {
          "internalType": "address",
          "name": "",
          "type": "address"
        }
      ],
      "stateMutability": "view",
      "type": "function"
    },
    {
      "inputs": [
        {
          "internalType": "address",
          "name": "_from",
          "type": "address"
        },
        {
          "internalType": "address",
          "name": "_to",
          "type": "address"
        },
        {
          "internalType": "uint256",
          "name": "_tokenId",
          "type": "uint256"
        }
      ],
      "name": "transferFrom",
      "outputs": [],
      "stateMutability": "nonpayable",
      "type": "function"
    },
    {
      "inputs": [
        {
          "internalType": "address",
          "name": "_to",
          "type": "address"
        },
        {
          "internalType": "uint256",
          "name": "tokenId",
          "type": "uint256"
        }
      ],
      "name": "approve",
      "outputs": [],
      "stateMutability": "nonpayable",
      "type": "function"
    }
  ],
  "bytecode": "0x608060405234801561001057600080fd5b50610c61806100206000396000f3fe608060405234801561001057600080fd5b506004361061004c5760003560e01c8063095ea7b31461005157806323b872dd1461006d5780636352211e1461008957806370a08231146100b9575b600080fd5b61006b600480360381019061006691906106da565b6100e9565b005b6100876004803603810190610082919061071a565b610285565b005b6100a3600480360381019061009e919061076d565b610295565b6040516100b091906107a9565b60405180910390f35b6100d360048036038101906100ce91906107c4565b610346565b6040516100e09190610800565b60405180910390f35b60006100f482610295565b90508073ffffffffffffffffffffffffffffffffffffffff168373ffffffffffffffffffffffffffffffffffffffff161415610165576040517f08c379a000000000000000000000000000000000000000000000000000000000815260040161015c9061089e565b60405180910390fd5b8073ffffffffffffffffffffffffffffffffffffffff163373ffffffffffffffffffffffffffffffffffffffff16146101d3576040517f08c379a00000000000000000000000000000000000000000000000000000000081526004016101ca90610930565b60405180910390fd5b826002600084815260200190815260200160002060006101000a81548173ffffffffffffffffffffffffffffffffffffffff021916908373ffffffffffffffffffffffffffffffffffffffff160217905550818373ffffffffffffffffffffffffffffffffffffffff168273ffffffffffffffffffffffffffffffffffffffff167f8c5be1e5ebec7d5bd14f71427d1e84f3dd0314c0f7b2291e5b200ac8c7c3b92560405160405180910390a4505050565b6102908383836103fe565b505050565b60008060008084815260200190815260200160002060009054906101000a900473ffffffffffffffffffffffffffffffffffffffff169050600073ffffffffffffffffffffffffffffffffffffffff168173ffffffffffffffffffffffffffffffffffffffff16141561033d576040517f08c379a0000000000000000000000000000000000000000000000000000000008152600401610334906109c2565b60405180910390fd5b80915050919050565b60008073ffffffffffffffffffffffffffffffffffffffff168273ffffffffffffffffffffffffffffffffffffffff1614156103b7576040517f08c379a00000000000000000000000000000000000000000000000000000000081526004016103ae90610a54565b60405180910390fd5b600160008373ffffffffffffffffffffffffffffffffffffffff1673ffffffffffffffffffffffffffffffffffffffff168152602001908152602001600020549050919050565b600073ffffffffffffffffffffffffffffffffffffffff168273ffffffffffffffffffffffffffffffffffffffff16141561046e576040517f08c379a000000000000000000000000000000000000000000000000000000000815260040161046590610ae6565b60405180910390fd5b8273ffffffffffffffffffffffffffffffffffffffff1661048e82610295565b73ffffffffffffffffffffffffffffffffffffffff16146104e4576040517f08c379a00000000000000000000000000000000000000000000000000000000081526004016104db90610b52565b60405180910390fd5b60018060008573ffffffffffffffffffffffffffffffffffffffff1673ffffffffffffffffffffffffffffffffffffffff16815260200190815260200160002060008282546105339190610ba1565b9250508190555060018060008473ffffffffffffffffffffffffffffffffffffffff1673ffffffffffffffffffffffffffffffffffffffff16815260200190815260200160002060008282546105899190610bd5565b925050819055508160008083815260200190815260200160002060006101000a81548173ffffffffffffffffffffffffffffffffffffffff021916908373ffffffffffffffffffffffffffffffffffffffff160217905550808273ffffffffffffffffffffffffffffffffffffffff168473ffffffffffffffffffffffffffffffffffffffff167fddf252ad1be2c89b69c2b068fc378daa952ba7f163c4a11628f55a4df523b3ef60405160405180910390a4505050565b600080fd5b600073ffffffffffffffffffffffffffffffffffffffff82169050919050565b600061067182610646565b9050919050565b61068181610666565b811461068c57600080fd5b50565b60008135905061069e81610678565b92915050565b6000819050919050565b6106b7816106a4565b81146106c257600080fd5b50565b6000813590506106d4816106ae565b92915050565b600080604083850312156106f1576106f0610641565b5b60006106ff8582860161068f565b9250506020610710858286016106c5565b9150509250929050565b60008060006060848603121561073357610732610641565b5b60006107418682870161068f565b93505060206107528682870161068f565b9250506040610763868287016106c5565b9150509250925092565b60006020828403121561078357610782610641565b5b6000610791848285016106c5565b91505092915050565b6107a381610666565b82525050565b60006020820190506107be600083018461079a565b92915050565b6000602082840312156107da576107d9610641565b5b60006107e88482850161068f565b91505092915050565b6107fa816106a4565b82525050565b600060208201905061081560008301846107f1565b92915050565b600082825260208201905092915050565b7f4572726f72202d20617070726f76616c20746f2063757272656e74206f776e6560008201527f7200000000000000000000000000000000000000000000000000000000000000602082015250565b600061088860218361081b565b91506108938261082c565b604082019050919050565b600060208201905081810360008301526108b78161087b565b9050919050565b7f4572726f72202d2063757272656e742063616c6c6572206973206e6f7420746860008201527f65206f776e657200000000000000000000000000000000000000000000000000602082015250565b600061091a60278361081b565b9150610925826108be565b604082019050919050565b600060208201905081810360008301526109498161090d565b9050919050565b7f6f776e657220717565727920666f72206e6f6e2d6578697374656e7420746f6b60008201527f656e206164647265737300000000000000000000000000000000000000000000602082015250565b60006109ac602a8361081b565b91506109b782610950565b604082019050919050565b600060208201905081810360008301526109db8161099f565b9050919050565b7f4552433732313a204e46542061737369676e656420746f207a65726f2061646460008201527f7265737320636f6e7369646572656420696e76616c6964000000000000000000602082015250565b6000610a3e60378361081b565b9150610a49826109e2565b604082019050919050565b60006020820190508181036000830152610a6d81610a31565b9050919050565b7f4552433732313a207472616e7366657220746f20746865207a65726f2061646460008201527f7265737300000000000000000000000000000000000000000000000000000000602082015250565b6000610ad060248361081b565b9150610adb82610a74565b604082019050919050565b60006020820190508181036000830152610aff81610ac3565b9050919050565b7f6164647265737320646f6573206e6f74206f776e207468697320746f6b656e00600082015250565b6000610b3c601f8361081b565b9150610b4782610b06565b602082019050919050565b60006020820190508181036000830152610b6b81610b2f565b9050919050565b7f4e487b7100000000000000000000000000000000000000000000000000000000600052601160045260246000fd5b6000610bac826106a4565b9150610bb7836106a4565b925082821015610bca57610bc9610b72565b5b828203905092915050565b6000610be0826106a4565b9150610beb836106a4565b9250827fffffffffffffffffffffffffffffffffffffffffffffffffffffffffffffffff03821115610c2057610c1f610b72565b5b82820190509291505056fea264697066735822122038d5fe9ebdecaf6b937ec0d4b51eb051b85496e225913bd114cac870e0b7fbcc64736f6c634300080b0033",
  "immutableReferences": {},
  "source": "// SPDX-License-Identifier: MIT\npragma solidity ^0.8.0;\n\ncontract ERC721 {\n    \n    //transfer event\n\n    event Transfer(\n        address indexed from, \n        address indexed to, \n        uint256 indexed tokenId);\n\n\n    //approval event\n\n    event Approval (\n        address indexed owner,\n        address indexed approved,\n        uint256 indexed tokenId);\n\n\n    //function _mint(address to, )\n\n    mapping(uint256 => address) private _tokenOwner;\n\n    mapping(address => uint256) _OwnedTokensCount;\n\n    mapping(uint256 => address) private _tokenApprovals;\n\n    function balanceOf(address _owner) public view returns(uint256) {\n        require(_owner !=address(0), 'ERC721: NFT assigned to zero address considered invalid');\n        return _OwnedTokensCount[_owner];\n    }\n\n    function _exists(uint256 tokenId) internal view returns(bool) {\n        address owner = _tokenOwner[tokenId];\n        return owner != address(0);\n    }\n\n    function ownerOf(uint256 _tokenId) public view returns(address) {\n        address owner = _tokenOwner[_tokenId];\n        require(owner != address(0), 'owner query for non-existent token address');\n        return owner;\n    }\n\n    function _mint(address to, uint256 tokenId) internal virtual {\n        require(to != address(0), 'ERC721: minting to the zero address');\n        require(!_exists(tokenId), 'ERC721: token already minted');\n        _tokenOwner[tokenId] = to;\n        _OwnedTokensCount[to] +=  1;\n\n        emit Transfer(address(0), to, tokenId);\n    }\n    \n    function _transferFrom(address _from, address _to, uint256 _tokenId) internal {\n        require(_to != address(0), 'ERC721: transfer to the zero address');\n        require(ownerOf(_tokenId) == _from, 'address does not own this token');\n        _OwnedTokensCount[_from] -= 1;\n        _OwnedTokensCount[_to] += 1;\n        _tokenOwner[_tokenId] = _to;\n\n        emit Transfer(_from, _to, _tokenId);\n    }\n\n    function transferFrom(address _from, address _to, uint256 _tokenId) public {\n        _transferFrom(_from, _to, _tokenId);\n    }\n\n    //require that the person approving is the owner\n    //approve an address to a token\n    //require that we can't approve sending tokens to the owner of the owner\n    //update the map of the approval addresses\n\n    function approve(address _to, uint256 tokenId) public{\n        address owner = ownerOf(tokenId);\n        require(_to != owner, 'Error - approval to current owner');\n        require(msg.sender == owner, 'Error - current caller is not the owner');\n        _tokenApprovals[tokenId] = _to;\n\n        emit Approval(owner, _to, tokenId);\n    }\n}\n\n\n\n\n",
  "sourcePath": "/Users/khalilshanti/nft-marketplace-starter-kit/src/contracts/ERC721.sol",
  "compiler": {
    "name": "solc",
    "version": "0.8.11+commit.d7f03943.Emscripten.clang"
  },
  "schemaVersion": "3.4.3",
  "updatedAt": "2022-01-31T11:53:37.310Z",
  "devdoc": {
    "kind": "dev",
    "methods": {},
    "version": 1
  },
  "userdoc": {
    "kind": "user",
    "methods": {},
    "version": 1
  }
}