{
  "contractName": "ERC721Connector",
  "abi": [
    {
      "inputs": [
        {
          "internalType": "string",
          "name": "name",
          "type": "string"
        },
        {
          "internalType": "string",
          "name": "symbol",
          "type": "string"
        }
      ],
      "stateMutability": "nonpayable",
      "type": "constructor"
    },
    {
      "anonymous": false,
      "inputs": [
        {
          "indexed": true,
          "internalType": "address",
          "name": "owner",
          "type": "address"
        },
        {
          "indexed": true,
          "internalType": "address",
          "name": "approved",
          "type": "address"
        },
        {
          "indexed": true,
          "internalType": "uint256",
          "name": "tokenId",
          "type": "uint256"
        }
      ],
      "name": "Approval",
      "type": "event"
    },
    {
      "anonymous": false,
      "inputs": [
        {
          "indexed": true,
          "internalType": "address",
          "name": "from",
          "type": "address"
        },
        {
          "indexed": true,
          "internalType": "address",
          "name": "to",
          "type": "address"
        },
        {
          "indexed": true,
          "internalType": "uint256",
          "name": "tokenId",
          "type": "uint256"
        }
      ],
      "name": "Transfer",
      "type": "event"
    },
    {
      "inputs": [
        {
          "internalType": "address",
          "name": "_to",
          "type": "address"
        },
        {
          "internalType": "uint256",
          "name": "tokenId",
          "type": "uint256"
        }
      ],
      "name": "approve",
      "outputs": [],
      "stateMutability": "nonpayable",
      "type": "function"
    },
    {
      "inputs": [
        {
          "internalType": "address",
          "name": "_owner",
          "type": "address"
        }
      ],
      "name": "balanceOf",
      "outputs": [
        {
          "internalType": "uint256",
          "name": "",
          "type": "uint256"
        }
      ],
      "stateMutability": "view",
      "type": "function"
    },
    {
      "inputs": [],
      "name": "name",
      "outputs": [
        {
          "internalType": "string",
          "name": "",
          "type": "string"
        }
      ],
      "stateMutability": "nonpayable",
      "type": "function"
    },
    {
      "inputs": [
        {
          "internalType": "uint256",
          "name": "_tokenId",
          "type": "uint256"
        }
      ],
      "name": "ownerOf",
      "outputs": [
        {
          "internalType": "address",
          "name": "",
          "type": "address"
        }
      ],
      "stateMutability": "view",
      "type": "function"
    },
    {
      "inputs": [],
      "name": "symbol",
      "outputs": [
        {
          "internalType": "string",
          "name": "",
          "type": "string"
        }
      ],
      "stateMutability": "nonpayable",
      "type": "function"
    },
    {
      "inputs": [
        {
          "internalType": "uint256",
          "name": "index",
          "type": "uint256"
        }
      ],
      "name": "tokenByIndex",
      "outputs": [
        {
          "internalType": "uint256",
          "name": "",
          "type": "uint256"
        }
      ],
      "stateMutability": "view",
      "type": "function"
    },
    {
      "inputs": [
        {
          "internalType": "address",
          "name": "owner",
          "type": "address"
        },
        {
          "internalType": "uint256",
          "name": "index",
          "type": "uint256"
        }
      ],
      "name": "tokenOfOwnerByIndex",
      "outputs": [
        {
          "internalType": "uint256",
          "name": "",
          "type": "uint256"
        }
      ],
      "stateMutability": "view",
      "type": "function"
    },
    {
      "inputs": [],
      "name": "totalSupply",
      "outputs": [
        {
          "internalType": "uint256",
          "name": "",
          "type": "uint256"
        }
      ],
      "stateMutability": "view",
      "type": "function"
    },
    {
      "inputs": [
        {
          "internalType": "address",
          "name": "_from",
          "type": "address"
        },
        {
          "internalType": "address",
          "name": "_to",
          "type": "address"
        },
        {
          "internalType": "uint256",
          "name": "_tokenId",
          "type": "uint256"
        }
      ],
      "name": "transferFrom",
      "outputs": [],
      "stateMutability": "nonpayable",
      "type": "function"
    }
  ],
  "bytecode": "0x60806040523480156200001157600080fd5b5060405162001586380380620015868339818101604052810190620000379190620002c2565b818181600090805190602001906200005192919062000075565b5080600190805190602001906200006a92919062000075565b5050505050620003ac565b828054620000839062000376565b90600052602060002090601f016020900481019282620000a75760008555620000f3565b82601f10620000c257805160ff1916838001178555620000f3565b82800160010185558215620000f3579182015b82811115620000f2578251825591602001919060010190620000d5565b5b50905062000102919062000106565b5090565b5b808211156200012157600081600090555060010162000107565b5090565b6000604051905090565b600080fd5b600080fd5b600080fd5b600080fd5b6000601f19601f8301169050919050565b7f4e487b7100000000000000000000000000000000000000000000000000000000600052604160045260246000fd5b6200018e8262000143565b810181811067ffffffffffffffff82111715620001b057620001af62000154565b5b80604052505050565b6000620001c562000125565b9050620001d3828262000183565b919050565b600067ffffffffffffffff821115620001f657620001f562000154565b5b620002018262000143565b9050602081019050919050565b60005b838110156200022e57808201518184015260208101905062000211565b838111156200023e576000848401525b50505050565b60006200025b6200025584620001d8565b620001b9565b9050828152602081018484840111156200027a57620002796200013e565b5b620002878482856200020e565b509392505050565b600082601f830112620002a757620002a662000139565b5b8151620002b984826020860162000244565b91505092915050565b60008060408385031215620002dc57620002db6200012f565b5b600083015167ffffffffffffffff811115620002fd57620002fc62000134565b5b6200030b858286016200028f565b925050602083015167ffffffffffffffff8111156200032f576200032e62000134565b5b6200033d858286016200028f565b9150509250929050565b7f4e487b7100000000000000000000000000000000000000000000000000000000600052602260045260246000fd5b600060028204905060018216806200038f57607f821691505b60208210811415620003a657620003a562000347565b5b50919050565b6111ca80620003bc6000396000f3fe608060405234801561001057600080fd5b50600436106100935760003560e01c80632f745c59116100665780632f745c591461010c5780634f6ccce71461013c5780636352211e1461016c57806370a082311461019c57806395d89b41146101cc57610093565b806306fdde0314610098578063095ea7b3146100b657806318160ddd146100d257806323b872dd146100f0575b600080fd5b6100a06101ea565b6040516100ad9190610a31565b60405180910390f35b6100d060048036038101906100cb9190610aec565b61027c565b005b6100da610418565b6040516100e79190610b3b565b60405180910390f35b61010a60048036038101906101059190610b56565b610425565b005b61012660048036038101906101219190610aec565b610435565b6040516101339190610b3b565b60405180910390f35b61015660048036038101906101519190610ba9565b6104e5565b6040516101639190610b3b565b60405180910390f35b61018660048036038101906101819190610ba9565b610556565b6040516101939190610be5565b60405180910390f35b6101b660048036038101906101b19190610c00565b610608565b6040516101c39190610b3b565b60405180910390f35b6101d46106c0565b6040516101e19190610a31565b60405180910390f35b6060600080546101f990610c5c565b80601f016020809104026020016040519081016040528092919081815260200182805461022590610c5c565b80156102725780601f1061024757610100808354040283529160200191610272565b820191906000526020600020905b81548152906001019060200180831161025557829003601f168201915b5050505050905090565b600061028782610556565b90508073ffffffffffffffffffffffffffffffffffffffff168373ffffffffffffffffffffffffffffffffffffffff1614156102f8576040517f08c379a00000000000000000000000000000000000000000000000000000000081526004016102ef90610d00565b60405180910390fd5b8073ffffffffffffffffffffffffffffffffffffffff163373ffffffffffffffffffffffffffffffffffffffff1614610366576040517f08c379a000000000000000000000000000000000000000000000000000000000815260040161035d90610d92565b60405180910390fd5b826004600084815260200190815260200160002060006101000a81548173ffffffffffffffffffffffffffffffffffffffff021916908373ffffffffffffffffffffffffffffffffffffffff160217905550818373ffffffffffffffffffffffffffffffffffffffff168273ffffffffffffffffffffffffffffffffffffffff167f8c5be1e5ebec7d5bd14f71427d1e84f3dd0314c0f7b2291e5b200ac8c7c3b92560405160405180910390a4505050565b6000600580549050905090565b610430838383610752565b505050565b600061044083610608565b8210610481576040517f08c379a000000000000000000000000000000000000000000000000000000000815260040161047890610dfe565b60405180910390fd5b600760008473ffffffffffffffffffffffffffffffffffffffff1673ffffffffffffffffffffffffffffffffffffffff16815260200190815260200160002082815481106104d2576104d1610e1e565b5b9060005260206000200154905092915050565b60006104ef610418565b8210610530576040517f08c379a000000000000000000000000000000000000000000000000000000000815260040161052790610e99565b60405180910390fd5b6005828154811061054457610543610e1e565b5b90600052602060002001549050919050565b6000806002600084815260200190815260200160002060009054906101000a900473ffffffffffffffffffffffffffffffffffffffff169050600073ffffffffffffffffffffffffffffffffffffffff168173ffffffffffffffffffffffffffffffffffffffff1614156105ff576040517f08c379a00000000000000000000000000000000000000000000000000000000081526004016105f690610f2b565b60405180910390fd5b80915050919050565b60008073ffffffffffffffffffffffffffffffffffffffff168273ffffffffffffffffffffffffffffffffffffffff161415610679576040517f08c379a000000000000000000000000000000000000000000000000000000000815260040161067090610fbd565b60405180910390fd5b600360008373ffffffffffffffffffffffffffffffffffffffff1673ffffffffffffffffffffffffffffffffffffffff168152602001908152602001600020549050919050565b6060600180546106cf90610c5c565b80601f01602080910402602001604051908101604052809291908181526020018280546106fb90610c5c565b80156107485780601f1061071d57610100808354040283529160200191610748565b820191906000526020600020905b81548152906001019060200180831161072b57829003601f168201915b5050505050905090565b600073ffffffffffffffffffffffffffffffffffffffff168273ffffffffffffffffffffffffffffffffffffffff1614156107c2576040517f08c379a00000000000000000000000000000000000000000000000000000000081526004016107b99061104f565b60405180910390fd5b8273ffffffffffffffffffffffffffffffffffffffff166107e282610556565b73ffffffffffffffffffffffffffffffffffffffff1614610838576040517f08c379a000000000000000000000000000000000000000000000000000000000815260040161082f906110bb565b60405180910390fd5b6001600360008573ffffffffffffffffffffffffffffffffffffffff1673ffffffffffffffffffffffffffffffffffffffff1681526020019081526020016000206000828254610888919061110a565b925050819055506001600360008473ffffffffffffffffffffffffffffffffffffffff1673ffffffffffffffffffffffffffffffffffffffff16815260200190815260200160002060008282546108df919061113e565b92505081905550816002600083815260200190815260200160002060006101000a81548173ffffffffffffffffffffffffffffffffffffffff021916908373ffffffffffffffffffffffffffffffffffffffff160217905550808273ffffffffffffffffffffffffffffffffffffffff168473ffffffffffffffffffffffffffffffffffffffff167fddf252ad1be2c89b69c2b068fc378daa952ba7f163c4a11628f55a4df523b3ef60405160405180910390a4505050565b600081519050919050565b600082825260208201905092915050565b60005b838110156109d25780820151818401526020810190506109b7565b838111156109e1576000848401525b50505050565b6000601f19601f8301169050919050565b6000610a0382610998565b610a0d81856109a3565b9350610a1d8185602086016109b4565b610a26816109e7565b840191505092915050565b60006020820190508181036000830152610a4b81846109f8565b905092915050565b600080fd5b600073ffffffffffffffffffffffffffffffffffffffff82169050919050565b6000610a8382610a58565b9050919050565b610a9381610a78565b8114610a9e57600080fd5b50565b600081359050610ab081610a8a565b92915050565b6000819050919050565b610ac981610ab6565b8114610ad457600080fd5b50565b600081359050610ae681610ac0565b92915050565b60008060408385031215610b0357610b02610a53565b5b6000610b1185828601610aa1565b9250506020610b2285828601610ad7565b9150509250929050565b610b3581610ab6565b82525050565b6000602082019050610b506000830184610b2c565b92915050565b600080600060608486031215610b6f57610b6e610a53565b5b6000610b7d86828701610aa1565b9350506020610b8e86828701610aa1565b9250506040610b9f86828701610ad7565b9150509250925092565b600060208284031215610bbf57610bbe610a53565b5b6000610bcd84828501610ad7565b91505092915050565b610bdf81610a78565b82525050565b6000602082019050610bfa6000830184610bd6565b92915050565b600060208284031215610c1657610c15610a53565b5b6000610c2484828501610aa1565b91505092915050565b7f4e487b7100000000000000000000000000000000000000000000000000000000600052602260045260246000fd5b60006002820490506001821680610c7457607f821691505b60208210811415610c8857610c87610c2d565b5b50919050565b7f4572726f72202d20617070726f76616c20746f2063757272656e74206f776e6560008201527f7200000000000000000000000000000000000000000000000000000000000000602082015250565b6000610cea6021836109a3565b9150610cf582610c8e565b604082019050919050565b60006020820190508181036000830152610d1981610cdd565b9050919050565b7f4572726f72202d2063757272656e742063616c6c6572206973206e6f7420746860008201527f65206f776e657200000000000000000000000000000000000000000000000000602082015250565b6000610d7c6027836109a3565b9150610d8782610d20565b604082019050919050565b60006020820190508181036000830152610dab81610d6f565b9050919050565b7f6f776e657220696e646578206973206f7574206f6620626f756e647300000000600082015250565b6000610de8601c836109a3565b9150610df382610db2565b602082019050919050565b60006020820190508181036000830152610e1781610ddb565b9050919050565b7f4e487b7100000000000000000000000000000000000000000000000000000000600052603260045260246000fd5b7f676c6f62616c20696e646578206973206f7574206f6620626f756e6473000000600082015250565b6000610e83601d836109a3565b9150610e8e82610e4d565b602082019050919050565b60006020820190508181036000830152610eb281610e76565b9050919050565b7f6f776e657220717565727920666f72206e6f6e2d6578697374656e7420746f6b60008201527f656e206164647265737300000000000000000000000000000000000000000000602082015250565b6000610f15602a836109a3565b9150610f2082610eb9565b604082019050919050565b60006020820190508181036000830152610f4481610f08565b9050919050565b7f4552433732313a204e46542061737369676e656420746f207a65726f2061646460008201527f7265737320636f6e7369646572656420696e76616c6964000000000000000000602082015250565b6000610fa76037836109a3565b9150610fb282610f4b565b604082019050919050565b60006020820190508181036000830152610fd681610f9a565b9050919050565b7f4552433732313a207472616e7366657220746f20746865207a65726f2061646460008201527f7265737300000000000000000000000000000000000000000000000000000000602082015250565b60006110396024836109a3565b915061104482610fdd565b604082019050919050565b600060208201905081810360008301526110688161102c565b9050919050565b7f6164647265737320646f6573206e6f74206f776e207468697320746f6b656e00600082015250565b60006110a5601f836109a3565b91506110b08261106f565b602082019050919050565b600060208201905081810360008301526110d481611098565b9050919050565b7f4e487b7100000000000000000000000000000000000000000000000000000000600052601160045260246000fd5b600061111582610ab6565b915061112083610ab6565b925082821015611133576111326110db565b5b828203905092915050565b600061114982610ab6565b915061115483610ab6565b9250827fffffffffffffffffffffffffffffffffffffffffffffffffffffffffffffffff03821115611189576111886110db565b5b82820190509291505056fea26469706673582212203f35adeeaddb7a2f4d1b8b30be938c30f43b50cb061fe5188a2fbcd8558febf464736f6c634300080b0033",
  "immutableReferences": {},
  "source": "// SPDX-License-Identifier: MIT\npragma solidity ^0.8.0;\n\nimport './ERC721Metadata.sol';\nimport './ERC721Enumerable.sol';\n\ncontract ERC721Connector is ERC721Metadata, ERC721Enumerable {\n\n    constructor(string memory name, string memory symbol) ERC721Metadata(name, symbol) {\n\n    }\n}",
  "sourcePath": "/Users/khalilshanti/nft-marketplace-starter-kit/src/contracts/ERC721Connector.sol",
  "compiler": {
    "name": "solc",
    "version": "0.8.11+commit.d7f03943.Emscripten.clang"
  },
  "schemaVersion": "3.4.3",
  "updatedAt": "2022-01-31T11:53:37.318Z",
  "devdoc": {
    "kind": "dev",
    "methods": {},
    "version": 1
  },
  "userdoc": {
    "kind": "user",
    "methods": {},
    "version": 1
  }
}