{
  "contractName": "ERC721",
  "abi": [
    {
      "anonymous": false,
      "inputs": [
        {
          "indexed": true,
          "internalType": "address",
          "name": "from",
          "type": "address"
        },
        {
          "indexed": true,
          "internalType": "address",
          "name": "to",
          "type": "address"
        },
        {
          "indexed": true,
          "internalType": "uint256",
          "name": "tokenId",
          "type": "uint256"
        }
      ],
      "name": "Transfer",
      "type": "event"
    },
    {
      "inputs": [
        {
          "internalType": "address",
          "name": "_owner",
          "type": "address"
        }
      ],
      "name": "balanceOf",
      "outputs": [
        {
          "internalType": "uint256",
          "name": "",
          "type": "uint256"
        }
      ],
      "stateMutability": "view",
      "type": "function"
    },
    {
      "inputs": [
        {
          "internalType": "uint256",
          "name": "_tokenId",
          "type": "uint256"
        }
      ],
      "name": "ownerOf",
      "outputs": [
        {
          "internalType": "address",
          "name": "",
          "type": "address"
        }
      ],
      "stateMutability": "view",
      "type": "function"
    },
    {
      "inputs": [
        {
          "internalType": "address",
          "name": "_from",
          "type": "address"
        },
        {
          "internalType": "address",
          "name": "_to",
          "type": "address"
        },
        {
          "internalType": "uint256",
          "name": "_tokenId",
          "type": "uint256"
        }
      ],
      "name": "transferFrom",
      "outputs": [],
      "stateMutability": "nonpayable",
      "type": "function"
    }
  ],
  "bytecode": "0x608060405234801561001057600080fd5b5061093a806100206000396000f3fe608060405234801561001057600080fd5b50600436106100415760003560e01c806323b872dd146100465780636352211e1461006257806370a0823114610092575b600080fd5b610060600480360381019061005b9190610517565b6100c2565b005b61007c6004803603810190610077919061056a565b6100d2565b60405161008991906105a6565b60405180910390f35b6100ac60048036038101906100a791906105c1565b610183565b6040516100b991906105fd565b60405180910390f35b6100cd83838361023b565b505050565b60008060008084815260200190815260200160002060009054906101000a900473ffffffffffffffffffffffffffffffffffffffff169050600073ffffffffffffffffffffffffffffffffffffffff168173ffffffffffffffffffffffffffffffffffffffff16141561017a576040517f08c379a00000000000000000000000000000000000000000000000000000000081526004016101719061069b565b60405180910390fd5b80915050919050565b60008073ffffffffffffffffffffffffffffffffffffffff168273ffffffffffffffffffffffffffffffffffffffff1614156101f4576040517f08c379a00000000000000000000000000000000000000000000000000000000081526004016101eb9061072d565b60405180910390fd5b600160008373ffffffffffffffffffffffffffffffffffffffff1673ffffffffffffffffffffffffffffffffffffffff168152602001908152602001600020549050919050565b600073ffffffffffffffffffffffffffffffffffffffff168273ffffffffffffffffffffffffffffffffffffffff1614156102ab576040517f08c379a00000000000000000000000000000000000000000000000000000000081526004016102a2906107bf565b60405180910390fd5b8273ffffffffffffffffffffffffffffffffffffffff166102cb826100d2565b73ffffffffffffffffffffffffffffffffffffffff1614610321576040517f08c379a00000000000000000000000000000000000000000000000000000000081526004016103189061082b565b60405180910390fd5b60018060008573ffffffffffffffffffffffffffffffffffffffff1673ffffffffffffffffffffffffffffffffffffffff1681526020019081526020016000206000828254610370919061087a565b9250508190555060018060008473ffffffffffffffffffffffffffffffffffffffff1673ffffffffffffffffffffffffffffffffffffffff16815260200190815260200160002060008282546103c691906108ae565b925050819055508160008083815260200190815260200160002060006101000a81548173ffffffffffffffffffffffffffffffffffffffff021916908373ffffffffffffffffffffffffffffffffffffffff160217905550808273ffffffffffffffffffffffffffffffffffffffff168473ffffffffffffffffffffffffffffffffffffffff167fddf252ad1be2c89b69c2b068fc378daa952ba7f163c4a11628f55a4df523b3ef60405160405180910390a4505050565b600080fd5b600073ffffffffffffffffffffffffffffffffffffffff82169050919050565b60006104ae82610483565b9050919050565b6104be816104a3565b81146104c957600080fd5b50565b6000813590506104db816104b5565b92915050565b6000819050919050565b6104f4816104e1565b81146104ff57600080fd5b50565b600081359050610511816104eb565b92915050565b6000806000606084860312156105305761052f61047e565b5b600061053e868287016104cc565b935050602061054f868287016104cc565b925050604061056086828701610502565b9150509250925092565b6000602082840312156105805761057f61047e565b5b600061058e84828501610502565b91505092915050565b6105a0816104a3565b82525050565b60006020820190506105bb6000830184610597565b92915050565b6000602082840312156105d7576105d661047e565b5b60006105e5848285016104cc565b91505092915050565b6105f7816104e1565b82525050565b600060208201905061061260008301846105ee565b92915050565b600082825260208201905092915050565b7f6f776e657220717565727920666f72206e6f6e2d6578697374656e7420746f6b60008201527f656e206164647265737300000000000000000000000000000000000000000000602082015250565b6000610685602a83610618565b915061069082610629565b604082019050919050565b600060208201905081810360008301526106b481610678565b9050919050565b7f4552433732313a204e46542061737369676e656420746f207a65726f2061646460008201527f7265737320636f6e7369646572656420696e76616c6964000000000000000000602082015250565b6000610717603783610618565b9150610722826106bb565b604082019050919050565b600060208201905081810360008301526107468161070a565b9050919050565b7f4552433732313a207472616e7366657220746f20746865207a65726f2061646460008201527f7265737300000000000000000000000000000000000000000000000000000000602082015250565b60006107a9602483610618565b91506107b48261074d565b604082019050919050565b600060208201905081810360008301526107d88161079c565b9050919050565b7f6164647265737320646f6573206e6f74206f776e207468697320746f6b656e00600082015250565b6000610815601f83610618565b9150610820826107df565b602082019050919050565b6000602082019050818103600083015261084481610808565b9050919050565b7f4e487b7100000000000000000000000000000000000000000000000000000000600052601160045260246000fd5b6000610885826104e1565b9150610890836104e1565b9250828210156108a3576108a261084b565b5b828203905092915050565b60006108b9826104e1565b91506108c4836104e1565b9250827fffffffffffffffffffffffffffffffffffffffffffffffffffffffffffffffff038211156108f9576108f861084b565b5b82820190509291505056fea26469706673582212203a7f3f55c8f879c6f02519d4bdbe480c8a0008b19cc265d3a323453502a79ac964736f6c634300080b0033",
  "immutableReferences": {},
  "source": "// SPDX-License-Identifier: MIT\npragma solidity ^0.8.0;\n\ncontract ERC721 {\n    \n    event Transfer(\n        address indexed from, \n        address indexed to, \n        uint256 indexed tokenId);\n\n    //function _mint(address to, )\n\n    mapping(uint256 => address) private _tokenOwner;\n\n    mapping(address => uint256) _OwnedTokensCount;\n\n    mapping(uint256 => address) private _tokenApprovals;\n\n    function balanceOf(address _owner) public view returns(uint256) {\n        require(_owner !=address(0), 'ERC721: NFT assigned to zero address considered invalid');\n        return _OwnedTokensCount[_owner];\n    }\n\n    function _exists(uint256 tokenId) internal view returns(bool) {\n        address owner = _tokenOwner[tokenId];\n        return owner != address(0);\n    }\n\n    function ownerOf(uint256 _tokenId) public view returns(address) {\n        address owner = _tokenOwner[_tokenId];\n        require(owner != address(0), 'owner query for non-existent token address');\n        return owner;\n    }\n\n    function _mint(address to, uint256 tokenId) internal virtual {\n        require(to != address(0), 'ERC721: minting to the zero address');\n        require(!_exists(tokenId), 'ERC721: token already minted');\n        _tokenOwner[tokenId] = to;\n        _OwnedTokensCount[to] +=  1;\n\n        emit Transfer(address(0), to, tokenId);\n    }\n    \n    function _transferFrom(address _from, address _to, uint256 _tokenId) internal {\n        require(_to != address(0), 'ERC721: transfer to the zero address');\n        require(ownerOf(_tokenId) == _from, 'address does not own this token');\n        _OwnedTokensCount[_from] -= 1;\n        _OwnedTokensCount[_to] += 1;\n        _tokenOwner[_tokenId] = _to;\n\n        emit Transfer(_from, _to, _tokenId);\n    }\n\n    function transferFrom(address _from, address _to, uint256 _tokenId) public {\n        _transferFrom(_from, _to, _tokenId);\n    }\n}\n\n",
  "sourcePath": "/Users/khalilshanti/nft-marketplace-starter-kit/src/contracts/ERC721.sol",
  "compiler": {
    "name": "solc",
    "version": "0.8.11+commit.d7f03943.Emscripten.clang"
  },
  "schemaVersion": "3.4.3",
  "updatedAt": "2021-12-28T22:54:32.417Z",
  "devdoc": {
    "kind": "dev",
    "methods": {},
    "version": 1
  },
  "userdoc": {
    "kind": "user",
    "methods": {},
    "version": 1
  }
}