{
  "contractName": "ERC721Enumerable",
  "abi": [
    {
      "anonymous": false,
      "inputs": [
        {
          "indexed": true,
          "internalType": "address",
          "name": "owner",
          "type": "address"
        },
        {
          "indexed": true,
          "internalType": "address",
          "name": "approved",
          "type": "address"
        },
        {
          "indexed": true,
          "internalType": "uint256",
          "name": "tokenId",
          "type": "uint256"
        }
      ],
      "name": "Approval",
      "type": "event"
    },
    {
      "anonymous": false,
      "inputs": [
        {
          "indexed": true,
          "internalType": "address",
          "name": "from",
          "type": "address"
        },
        {
          "indexed": true,
          "internalType": "address",
          "name": "to",
          "type": "address"
        },
        {
          "indexed": true,
          "internalType": "uint256",
          "name": "tokenId",
          "type": "uint256"
        }
      ],
      "name": "Transfer",
      "type": "event"
    },
    {
      "inputs": [
        {
          "internalType": "address",
          "name": "_to",
          "type": "address"
        },
        {
          "internalType": "uint256",
          "name": "tokenId",
          "type": "uint256"
        }
      ],
      "name": "approve",
      "outputs": [],
      "stateMutability": "nonpayable",
      "type": "function"
    },
    {
      "inputs": [
        {
          "internalType": "address",
          "name": "_owner",
          "type": "address"
        }
      ],
      "name": "balanceOf",
      "outputs": [
        {
          "internalType": "uint256",
          "name": "",
          "type": "uint256"
        }
      ],
      "stateMutability": "view",
      "type": "function"
    },
    {
      "inputs": [
        {
          "internalType": "uint256",
          "name": "_tokenId",
          "type": "uint256"
        }
      ],
      "name": "ownerOf",
      "outputs": [
        {
          "internalType": "address",
          "name": "",
          "type": "address"
        }
      ],
      "stateMutability": "view",
      "type": "function"
    },
    {
      "inputs": [
        {
          "internalType": "address",
          "name": "_from",
          "type": "address"
        },
        {
          "internalType": "address",
          "name": "_to",
          "type": "address"
        },
        {
          "internalType": "uint256",
          "name": "_tokenId",
          "type": "uint256"
        }
      ],
      "name": "transferFrom",
      "outputs": [],
      "stateMutability": "nonpayable",
      "type": "function"
    },
    {
      "inputs": [],
      "name": "totalSupply",
      "outputs": [
        {
          "internalType": "uint256",
          "name": "",
          "type": "uint256"
        }
      ],
      "stateMutability": "view",
      "type": "function"
    },
    {
      "inputs": [
        {
          "internalType": "uint256",
          "name": "index",
          "type": "uint256"
        }
      ],
      "name": "tokenByIndex",
      "outputs": [
        {
          "internalType": "uint256",
          "name": "",
          "type": "uint256"
        }
      ],
      "stateMutability": "view",
      "type": "function"
    },
    {
      "inputs": [
        {
          "internalType": "address",
          "name": "owner",
          "type": "address"
        },
        {
          "internalType": "uint256",
          "name": "index",
          "type": "uint256"
        }
      ],
      "name": "tokenOfOwnerByIndex",
      "outputs": [
        {
          "internalType": "uint256",
          "name": "",
          "type": "uint256"
        }
      ],
      "stateMutability": "view",
      "type": "function"
    }
  ],
  "bytecode": "0x608060405234801561001057600080fd5b50610f45806100206000396000f3fe608060405234801561001057600080fd5b506004361061007d5760003560e01c80632f745c591161005b5780632f745c59146100d85780634f6ccce7146101085780636352211e1461013857806370a08231146101685761007d565b8063095ea7b31461008257806318160ddd1461009e57806323b872dd146100bc575b600080fd5b61009c600480360381019061009791906108b7565b610198565b005b6100a6610334565b6040516100b39190610906565b60405180910390f35b6100d660048036038101906100d19190610921565b610341565b005b6100f260048036038101906100ed91906108b7565b610351565b6040516100ff9190610906565b60405180910390f35b610122600480360381019061011d9190610974565b610401565b60405161012f9190610906565b60405180910390f35b610152600480360381019061014d9190610974565b610472565b60405161015f91906109b0565b60405180910390f35b610182600480360381019061017d91906109cb565b610523565b60405161018f9190610906565b60405180910390f35b60006101a382610472565b90508073ffffffffffffffffffffffffffffffffffffffff168373ffffffffffffffffffffffffffffffffffffffff161415610214576040517f08c379a000000000000000000000000000000000000000000000000000000000815260040161020b90610a7b565b60405180910390fd5b8073ffffffffffffffffffffffffffffffffffffffff163373ffffffffffffffffffffffffffffffffffffffff1614610282576040517f08c379a000000000000000000000000000000000000000000000000000000000815260040161027990610b0d565b60405180910390fd5b826002600084815260200190815260200160002060006101000a81548173ffffffffffffffffffffffffffffffffffffffff021916908373ffffffffffffffffffffffffffffffffffffffff160217905550818373ffffffffffffffffffffffffffffffffffffffff168273ffffffffffffffffffffffffffffffffffffffff167f8c5be1e5ebec7d5bd14f71427d1e84f3dd0314c0f7b2291e5b200ac8c7c3b92560405160405180910390a4505050565b6000600380549050905090565b61034c8383836105db565b505050565b600061035c83610523565b821061039d576040517f08c379a000000000000000000000000000000000000000000000000000000000815260040161039490610b79565b60405180910390fd5b600560008473ffffffffffffffffffffffffffffffffffffffff1673ffffffffffffffffffffffffffffffffffffffff16815260200190815260200160002082815481106103ee576103ed610b99565b5b9060005260206000200154905092915050565b600061040b610334565b821061044c576040517f08c379a000000000000000000000000000000000000000000000000000000000815260040161044390610c14565b60405180910390fd5b600382815481106104605761045f610b99565b5b90600052602060002001549050919050565b60008060008084815260200190815260200160002060009054906101000a900473ffffffffffffffffffffffffffffffffffffffff169050600073ffffffffffffffffffffffffffffffffffffffff168173ffffffffffffffffffffffffffffffffffffffff16141561051a576040517f08c379a000000000000000000000000000000000000000000000000000000000815260040161051190610ca6565b60405180910390fd5b80915050919050565b60008073ffffffffffffffffffffffffffffffffffffffff168273ffffffffffffffffffffffffffffffffffffffff161415610594576040517f08c379a000000000000000000000000000000000000000000000000000000000815260040161058b90610d38565b60405180910390fd5b600160008373ffffffffffffffffffffffffffffffffffffffff1673ffffffffffffffffffffffffffffffffffffffff168152602001908152602001600020549050919050565b600073ffffffffffffffffffffffffffffffffffffffff168273ffffffffffffffffffffffffffffffffffffffff16141561064b576040517f08c379a000000000000000000000000000000000000000000000000000000000815260040161064290610dca565b60405180910390fd5b8273ffffffffffffffffffffffffffffffffffffffff1661066b82610472565b73ffffffffffffffffffffffffffffffffffffffff16146106c1576040517f08c379a00000000000000000000000000000000000000000000000000000000081526004016106b890610e36565b60405180910390fd5b60018060008573ffffffffffffffffffffffffffffffffffffffff1673ffffffffffffffffffffffffffffffffffffffff16815260200190815260200160002060008282546107109190610e85565b9250508190555060018060008473ffffffffffffffffffffffffffffffffffffffff1673ffffffffffffffffffffffffffffffffffffffff16815260200190815260200160002060008282546107669190610eb9565b925050819055508160008083815260200190815260200160002060006101000a81548173ffffffffffffffffffffffffffffffffffffffff021916908373ffffffffffffffffffffffffffffffffffffffff160217905550808273ffffffffffffffffffffffffffffffffffffffff168473ffffffffffffffffffffffffffffffffffffffff167fddf252ad1be2c89b69c2b068fc378daa952ba7f163c4a11628f55a4df523b3ef60405160405180910390a4505050565b600080fd5b600073ffffffffffffffffffffffffffffffffffffffff82169050919050565b600061084e82610823565b9050919050565b61085e81610843565b811461086957600080fd5b50565b60008135905061087b81610855565b92915050565b6000819050919050565b61089481610881565b811461089f57600080fd5b50565b6000813590506108b18161088b565b92915050565b600080604083850312156108ce576108cd61081e565b5b60006108dc8582860161086c565b92505060206108ed858286016108a2565b9150509250929050565b61090081610881565b82525050565b600060208201905061091b60008301846108f7565b92915050565b60008060006060848603121561093a5761093961081e565b5b60006109488682870161086c565b93505060206109598682870161086c565b925050604061096a868287016108a2565b9150509250925092565b60006020828403121561098a5761098961081e565b5b6000610998848285016108a2565b91505092915050565b6109aa81610843565b82525050565b60006020820190506109c560008301846109a1565b92915050565b6000602082840312156109e1576109e061081e565b5b60006109ef8482850161086c565b91505092915050565b600082825260208201905092915050565b7f4572726f72202d20617070726f76616c20746f2063757272656e74206f776e6560008201527f7200000000000000000000000000000000000000000000000000000000000000602082015250565b6000610a656021836109f8565b9150610a7082610a09565b604082019050919050565b60006020820190508181036000830152610a9481610a58565b9050919050565b7f4572726f72202d2063757272656e742063616c6c6572206973206e6f7420746860008201527f65206f776e657200000000000000000000000000000000000000000000000000602082015250565b6000610af76027836109f8565b9150610b0282610a9b565b604082019050919050565b60006020820190508181036000830152610b2681610aea565b9050919050565b7f6f776e657220696e646578206973206f7574206f6620626f756e647300000000600082015250565b6000610b63601c836109f8565b9150610b6e82610b2d565b602082019050919050565b60006020820190508181036000830152610b9281610b56565b9050919050565b7f4e487b7100000000000000000000000000000000000000000000000000000000600052603260045260246000fd5b7f676c6f62616c20696e646578206973206f7574206f6620626f756e6473000000600082015250565b6000610bfe601d836109f8565b9150610c0982610bc8565b602082019050919050565b60006020820190508181036000830152610c2d81610bf1565b9050919050565b7f6f776e657220717565727920666f72206e6f6e2d6578697374656e7420746f6b60008201527f656e206164647265737300000000000000000000000000000000000000000000602082015250565b6000610c90602a836109f8565b9150610c9b82610c34565b604082019050919050565b60006020820190508181036000830152610cbf81610c83565b9050919050565b7f4552433732313a204e46542061737369676e656420746f207a65726f2061646460008201527f7265737320636f6e7369646572656420696e76616c6964000000000000000000602082015250565b6000610d226037836109f8565b9150610d2d82610cc6565b604082019050919050565b60006020820190508181036000830152610d5181610d15565b9050919050565b7f4552433732313a207472616e7366657220746f20746865207a65726f2061646460008201527f7265737300000000000000000000000000000000000000000000000000000000602082015250565b6000610db46024836109f8565b9150610dbf82610d58565b604082019050919050565b60006020820190508181036000830152610de381610da7565b9050919050565b7f6164647265737320646f6573206e6f74206f776e207468697320746f6b656e00600082015250565b6000610e20601f836109f8565b9150610e2b82610dea565b602082019050919050565b60006020820190508181036000830152610e4f81610e13565b9050919050565b7f4e487b7100000000000000000000000000000000000000000000000000000000600052601160045260246000fd5b6000610e9082610881565b9150610e9b83610881565b925082821015610eae57610ead610e56565b5b828203905092915050565b6000610ec482610881565b9150610ecf83610881565b9250827fffffffffffffffffffffffffffffffffffffffffffffffffffffffffffffffff03821115610f0457610f03610e56565b5b82820190509291505056fea2646970667358221220a0d9dd9933f6c382a5a1cd47e376d06fda5af8ea302b59ae457429860997133164736f6c634300080b0033",
  "immutableReferences": {},
  "source": "// SPDX-License-Identifier: MIT\npragma solidity ^0.8.0;\n\nimport './ERC721.sol';\n\ncontract ERC721Enumerable is ERC721 {\n\n    function totalSupply() public view returns (uint256){\n        return _allTokens.length;\n    }\n    \n    uint256[] private _allTokens;\n    \n    mapping (uint256 => uint256) private _allTokensIndex;\n    mapping (address => uint256[]) private _ownedTokens;\n    mapping (uint256 => uint256) private _ownedTokensIndex;\n\n    function _mint(address to, uint256 tokenId) internal override(ERC721) {\n        super._mint(to, tokenId);\n        _addTokensToAllTokensEnumeration(tokenId);\n        _addTokensToOwnerEnumeration(to, tokenId);\n    }\n\n    function _addTokensToOwnerEnumeration(address to, uint256 tokenId) private {\n        _ownedTokens[to].push(tokenId);\n        _ownedTokensIndex[tokenId] = _ownedTokens[to].length;\n    } \n\n    function tokenByIndex(uint256 index) public view returns(uint256) {\n        require(index < totalSupply(), 'global index is out of bounds');\n        return _allTokens[index];\n    }\n\n    function tokenOfOwnerByIndex(address owner, uint256 index) public view returns(uint256) {\n        require(index < balanceOf(owner), 'owner index is out of bounds');\n        return _ownedTokens[owner][index];\n    }\n\n    function _addTokensToAllTokensEnumeration(uint256 tokenId) private {\n         _allTokensIndex[tokenId] =  _allTokens.length;\n        _allTokens.push(tokenId);\n    }\n}",
  "sourcePath": "/Users/khalilshanti/nft-marketplace-starter-kit/src/contracts/ERC721Enumerable.sol",
  "compiler": {
    "name": "solc",
    "version": "0.8.11+commit.d7f03943.Emscripten.clang"
  },
  "schemaVersion": "3.4.3",
  "updatedAt": "2022-01-31T11:53:37.322Z",
  "devdoc": {
    "kind": "dev",
    "methods": {},
    "version": 1
  },
  "userdoc": {
    "kind": "user",
    "methods": {},
    "version": 1
  }
}