{
  "contractName": "KryptoBird",
  "abi": [
    {
      "inputs": [],
      "stateMutability": "nonpayable",
      "type": "constructor"
    },
    {
      "anonymous": false,
      "inputs": [
        {
          "indexed": true,
          "internalType": "address",
          "name": "owner",
          "type": "address"
        },
        {
          "indexed": true,
          "internalType": "address",
          "name": "approved",
          "type": "address"
        },
        {
          "indexed": true,
          "internalType": "uint256",
          "name": "tokenId",
          "type": "uint256"
        }
      ],
      "name": "Approval",
      "type": "event"
    },
    {
      "anonymous": false,
      "inputs": [
        {
          "indexed": true,
          "internalType": "address",
          "name": "from",
          "type": "address"
        },
        {
          "indexed": true,
          "internalType": "address",
          "name": "to",
          "type": "address"
        },
        {
          "indexed": true,
          "internalType": "uint256",
          "name": "tokenId",
          "type": "uint256"
        }
      ],
      "name": "Transfer",
      "type": "event"
    },
    {
      "inputs": [
        {
          "internalType": "address",
          "name": "_to",
          "type": "address"
        },
        {
          "internalType": "uint256",
          "name": "tokenId",
          "type": "uint256"
        }
      ],
      "name": "approve",
      "outputs": [],
      "stateMutability": "nonpayable",
      "type": "function"
    },
    {
      "inputs": [
        {
          "internalType": "address",
          "name": "_owner",
          "type": "address"
        }
      ],
      "name": "balanceOf",
      "outputs": [
        {
          "internalType": "uint256",
          "name": "",
          "type": "uint256"
        }
      ],
      "stateMutability": "view",
      "type": "function",
      "constant": true
    },
    {
      "inputs": [
        {
          "internalType": "uint256",
          "name": "",
          "type": "uint256"
        }
      ],
      "name": "kryptoBirdz",
      "outputs": [
        {
          "internalType": "string",
          "name": "",
          "type": "string"
        }
      ],
      "stateMutability": "view",
      "type": "function",
      "constant": true
    },
    {
      "inputs": [],
      "name": "name",
      "outputs": [
        {
          "internalType": "string",
          "name": "",
          "type": "string"
        }
      ],
      "stateMutability": "nonpayable",
      "type": "function"
    },
    {
      "inputs": [
        {
          "internalType": "uint256",
          "name": "_tokenId",
          "type": "uint256"
        }
      ],
      "name": "ownerOf",
      "outputs": [
        {
          "internalType": "address",
          "name": "",
          "type": "address"
        }
      ],
      "stateMutability": "view",
      "type": "function",
      "constant": true
    },
    {
      "inputs": [],
      "name": "symbol",
      "outputs": [
        {
          "internalType": "string",
          "name": "",
          "type": "string"
        }
      ],
      "stateMutability": "nonpayable",
      "type": "function"
    },
    {
      "inputs": [
        {
          "internalType": "uint256",
          "name": "index",
          "type": "uint256"
        }
      ],
      "name": "tokenByIndex",
      "outputs": [
        {
          "internalType": "uint256",
          "name": "",
          "type": "uint256"
        }
      ],
      "stateMutability": "view",
      "type": "function",
      "constant": true
    },
    {
      "inputs": [
        {
          "internalType": "address",
          "name": "owner",
          "type": "address"
        },
        {
          "internalType": "uint256",
          "name": "index",
          "type": "uint256"
        }
      ],
      "name": "tokenOfOwnerByIndex",
      "outputs": [
        {
          "internalType": "uint256",
          "name": "",
          "type": "uint256"
        }
      ],
      "stateMutability": "view",
      "type": "function",
      "constant": true
    },
    {
      "inputs": [],
      "name": "totalSupply",
      "outputs": [
        {
          "internalType": "uint256",
          "name": "",
          "type": "uint256"
        }
      ],
      "stateMutability": "view",
      "type": "function",
      "constant": true
    },
    {
      "inputs": [
        {
          "internalType": "address",
          "name": "_from",
          "type": "address"
        },
        {
          "internalType": "address",
          "name": "_to",
          "type": "address"
        },
        {
          "internalType": "uint256",
          "name": "_tokenId",
          "type": "uint256"
        }
      ],
      "name": "transferFrom",
      "outputs": [],
      "stateMutability": "nonpayable",
      "type": "function"
    },
    {
      "inputs": [
        {
          "internalType": "string",
          "name": "_kryptoBird",
          "type": "string"
        }
      ],
      "name": "mint",
      "outputs": [],
      "stateMutability": "nonpayable",
      "type": "function"
    }
  ],
  "bytecode": "0x60806040523480156200001157600080fd5b506040518060400160405280600a81526020017f4b727970746f42697264000000000000000000000000000000000000000000008152506040518060400160405280600681526020017f4b424952445a00000000000000000000000000000000000000000000000000008152508181816000908051906020019062000098929190620000bc565b508060019080519060200190620000b1929190620000bc565b5050505050620001d1565b828054620000ca906200019b565b90600052602060002090601f016020900481019282620000ee57600085556200013a565b82601f106200010957805160ff19168380011785556200013a565b828001600101855582156200013a579182015b82811115620001395782518255916020019190600101906200011c565b5b5090506200014991906200014d565b5090565b5b80821115620001685760008160009055506001016200014e565b5090565b7f4e487b7100000000000000000000000000000000000000000000000000000000600052602260045260246000fd5b60006002820490506001821680620001b457607f821691505b60208210811415620001cb57620001ca6200016c565b5b50919050565b611b5080620001e16000396000f3fe608060405234801561001057600080fd5b50600436106100a95760003560e01c80634f6ccce7116100715780634f6ccce7146101525780636352211e1461018257806370a08231146101b257806393ab6e56146101e257806395d89b4114610212578063d85d3d2714610230576100a9565b806306fdde03146100ae578063095ea7b3146100cc57806318160ddd146100e857806323b872dd146101065780632f745c5914610122575b600080fd5b6100b661024c565b6040516100c39190611047565b60405180910390f35b6100e660048036038101906100e19190611111565b6102de565b005b6100f061047a565b6040516100fd9190611160565b60405180910390f35b610120600480360381019061011b919061117b565b610487565b005b61013c60048036038101906101379190611111565b610497565b6040516101499190611160565b60405180910390f35b61016c600480360381019061016791906111ce565b610547565b6040516101799190611160565b60405180910390f35b61019c600480360381019061019791906111ce565b6105b8565b6040516101a9919061120a565b60405180910390f35b6101cc60048036038101906101c79190611225565b61066a565b6040516101d99190611160565b60405180910390f35b6101fc60048036038101906101f791906111ce565b610722565b6040516102099190611047565b60405180910390f35b61021a6107ce565b6040516102279190611047565b60405180910390f35b61024a60048036038101906102459190611387565b610860565b005b60606000805461025b906113ff565b80601f0160208091040260200160405190810160405280929190818152602001828054610287906113ff565b80156102d45780601f106102a9576101008083540402835291602001916102d4565b820191906000526020600020905b8154815290600101906020018083116102b757829003601f168201915b5050505050905090565b60006102e9826105b8565b90508073ffffffffffffffffffffffffffffffffffffffff168373ffffffffffffffffffffffffffffffffffffffff16141561035a576040517f08c379a0000000000000000000000000000000000000000000000000000000008152600401610351906114a3565b60405180910390fd5b8073ffffffffffffffffffffffffffffffffffffffff163373ffffffffffffffffffffffffffffffffffffffff16146103c8576040517f08c379a00000000000000000000000000000000000000000000000000000000081526004016103bf90611535565b60405180910390fd5b826004600084815260200190815260200160002060006101000a81548173ffffffffffffffffffffffffffffffffffffffff021916908373ffffffffffffffffffffffffffffffffffffffff160217905550818373ffffffffffffffffffffffffffffffffffffffff168273ffffffffffffffffffffffffffffffffffffffff167f8c5be1e5ebec7d5bd14f71427d1e84f3dd0314c0f7b2291e5b200ac8c7c3b92560405160405180910390a4505050565b6000600580549050905090565b610492838383610963565b505050565b60006104a28361066a565b82106104e3576040517f08c379a00000000000000000000000000000000000000000000000000000000081526004016104da906115a1565b60405180910390fd5b600760008473ffffffffffffffffffffffffffffffffffffffff1673ffffffffffffffffffffffffffffffffffffffff1681526020019081526020016000208281548110610534576105336115c1565b5b9060005260206000200154905092915050565b600061055161047a565b8210610592576040517f08c379a00000000000000000000000000000000000000000000000000000000081526004016105899061163c565b60405180910390fd5b600582815481106105a6576105a56115c1565b5b90600052602060002001549050919050565b6000806002600084815260200190815260200160002060009054906101000a900473ffffffffffffffffffffffffffffffffffffffff169050600073ffffffffffffffffffffffffffffffffffffffff168173ffffffffffffffffffffffffffffffffffffffff161415610661576040517f08c379a0000000000000000000000000000000000000000000000000000000008152600401610658906116ce565b60405180910390fd5b80915050919050565b60008073ffffffffffffffffffffffffffffffffffffffff168273ffffffffffffffffffffffffffffffffffffffff1614156106db576040517f08c379a00000000000000000000000000000000000000000000000000000000081526004016106d290611760565b60405180910390fd5b600360008373ffffffffffffffffffffffffffffffffffffffff1673ffffffffffffffffffffffffffffffffffffffff168152602001908152602001600020549050919050565b6009818154811061073257600080fd5b90600052602060002001600091509050805461074d906113ff565b80601f0160208091040260200160405190810160405280929190818152602001828054610779906113ff565b80156107c65780601f1061079b576101008083540402835291602001916107c6565b820191906000526020600020905b8154815290600101906020018083116107a957829003601f168201915b505050505081565b6060600180546107dd906113ff565b80601f0160208091040260200160405190810160405280929190818152602001828054610809906113ff565b80156108565780601f1061082b57610100808354040283529160200191610856565b820191906000526020600020905b81548152906001019060200180831161083957829003601f168201915b5050505050905090565b600a8160405161087091906117bc565b908152602001604051809103902060009054906101000a900460ff16156108cc576040517f08c379a00000000000000000000000000000000000000000000000000000000081526004016108c390611845565b60405180910390fd5b600981908060018154018082558091505060019003906000526020600020016000909190919091509080519060200190610907929190610f0b565b506000600160098054905061091c9190611894565b90506109283382610ba9565b6001600a8360405161093a91906117bc565b908152602001604051809103902060006101000a81548160ff0219169083151502179055505050565b600073ffffffffffffffffffffffffffffffffffffffff168273ffffffffffffffffffffffffffffffffffffffff1614156109d3576040517f08c379a00000000000000000000000000000000000000000000000000000000081526004016109ca9061193a565b60405180910390fd5b8273ffffffffffffffffffffffffffffffffffffffff166109f3826105b8565b73ffffffffffffffffffffffffffffffffffffffff1614610a49576040517f08c379a0000000000000000000000000000000000000000000000000000000008152600401610a40906119a6565b60405180910390fd5b6001600360008573ffffffffffffffffffffffffffffffffffffffff1673ffffffffffffffffffffffffffffffffffffffff1681526020019081526020016000206000828254610a999190611894565b925050819055506001600360008473ffffffffffffffffffffffffffffffffffffffff1673ffffffffffffffffffffffffffffffffffffffff1681526020019081526020016000206000828254610af091906119c6565b92505081905550816002600083815260200190815260200160002060006101000a81548173ffffffffffffffffffffffffffffffffffffffff021916908373ffffffffffffffffffffffffffffffffffffffff160217905550808273ffffffffffffffffffffffffffffffffffffffff168473ffffffffffffffffffffffffffffffffffffffff167fddf252ad1be2c89b69c2b068fc378daa952ba7f163c4a11628f55a4df523b3ef60405160405180910390a4505050565b610bb38282610bca565b610bbc81610d8c565b610bc68282610dd5565b5050565b600073ffffffffffffffffffffffffffffffffffffffff168273ffffffffffffffffffffffffffffffffffffffff161415610c3a576040517f08c379a0000000000000000000000000000000000000000000000000000000008152600401610c3190611a8e565b60405180910390fd5b610c4381610e99565b15610c83576040517f08c379a0000000000000000000000000000000000000000000000000000000008152600401610c7a90611afa565b60405180910390fd5b816002600083815260200190815260200160002060006101000a81548173ffffffffffffffffffffffffffffffffffffffff021916908373ffffffffffffffffffffffffffffffffffffffff1602179055506001600360008473ffffffffffffffffffffffffffffffffffffffff1673ffffffffffffffffffffffffffffffffffffffff1681526020019081526020016000206000828254610d2591906119c6565b92505081905550808273ffffffffffffffffffffffffffffffffffffffff16600073ffffffffffffffffffffffffffffffffffffffff167fddf252ad1be2c89b69c2b068fc378daa952ba7f163c4a11628f55a4df523b3ef60405160405180910390a45050565b6005805490506006600083815260200190815260200160002081905550600581908060018154018082558091505060019003906000526020600020016000909190919091505550565b600760008373ffffffffffffffffffffffffffffffffffffffff1673ffffffffffffffffffffffffffffffffffffffff168152602001908152602001600020819080600181540180825580915050600190039060005260206000200160009091909190915055600760008373ffffffffffffffffffffffffffffffffffffffff1673ffffffffffffffffffffffffffffffffffffffff1681526020019081526020016000208054905060086000838152602001908152602001600020819055505050565b6000806002600084815260200190815260200160002060009054906101000a900473ffffffffffffffffffffffffffffffffffffffff169050600073ffffffffffffffffffffffffffffffffffffffff168173ffffffffffffffffffffffffffffffffffffffff161415915050919050565b828054610f17906113ff565b90600052602060002090601f016020900481019282610f395760008555610f80565b82601f10610f5257805160ff1916838001178555610f80565b82800160010185558215610f80579182015b82811115610f7f578251825591602001919060010190610f64565b5b509050610f8d9190610f91565b5090565b5b80821115610faa576000816000905550600101610f92565b5090565b600081519050919050565b600082825260208201905092915050565b60005b83811015610fe8578082015181840152602081019050610fcd565b83811115610ff7576000848401525b50505050565b6000601f19601f8301169050919050565b600061101982610fae565b6110238185610fb9565b9350611033818560208601610fca565b61103c81610ffd565b840191505092915050565b60006020820190508181036000830152611061818461100e565b905092915050565b6000604051905090565b600080fd5b600080fd5b600073ffffffffffffffffffffffffffffffffffffffff82169050919050565b60006110a88261107d565b9050919050565b6110b88161109d565b81146110c357600080fd5b50565b6000813590506110d5816110af565b92915050565b6000819050919050565b6110ee816110db565b81146110f957600080fd5b50565b60008135905061110b816110e5565b92915050565b6000806040838503121561112857611127611073565b5b6000611136858286016110c6565b9250506020611147858286016110fc565b9150509250929050565b61115a816110db565b82525050565b60006020820190506111756000830184611151565b92915050565b60008060006060848603121561119457611193611073565b5b60006111a2868287016110c6565b93505060206111b3868287016110c6565b92505060406111c4868287016110fc565b9150509250925092565b6000602082840312156111e4576111e3611073565b5b60006111f2848285016110fc565b91505092915050565b6112048161109d565b82525050565b600060208201905061121f60008301846111fb565b92915050565b60006020828403121561123b5761123a611073565b5b6000611249848285016110c6565b91505092915050565b600080fd5b600080fd5b7f4e487b7100000000000000000000000000000000000000000000000000000000600052604160045260246000fd5b61129482610ffd565b810181811067ffffffffffffffff821117156112b3576112b261125c565b5b80604052505050565b60006112c6611069565b90506112d2828261128b565b919050565b600067ffffffffffffffff8211156112f2576112f161125c565b5b6112fb82610ffd565b9050602081019050919050565b82818337600083830152505050565b600061132a611325846112d7565b6112bc565b90508281526020810184848401111561134657611345611257565b5b611351848285611308565b509392505050565b600082601f83011261136e5761136d611252565b5b813561137e848260208601611317565b91505092915050565b60006020828403121561139d5761139c611073565b5b600082013567ffffffffffffffff8111156113bb576113ba611078565b5b6113c784828501611359565b91505092915050565b7f4e487b7100000000000000000000000000000000000000000000000000000000600052602260045260246000fd5b6000600282049050600182168061141757607f821691505b6020821081141561142b5761142a6113d0565b5b50919050565b7f4572726f72202d20617070726f76616c20746f2063757272656e74206f776e6560008201527f7200000000000000000000000000000000000000000000000000000000000000602082015250565b600061148d602183610fb9565b915061149882611431565b604082019050919050565b600060208201905081810360008301526114bc81611480565b9050919050565b7f4572726f72202d2063757272656e742063616c6c6572206973206e6f7420746860008201527f65206f776e657200000000000000000000000000000000000000000000000000602082015250565b600061151f602783610fb9565b915061152a826114c3565b604082019050919050565b6000602082019050818103600083015261154e81611512565b9050919050565b7f6f776e657220696e646578206973206f7574206f6620626f756e647300000000600082015250565b600061158b601c83610fb9565b915061159682611555565b602082019050919050565b600060208201905081810360008301526115ba8161157e565b9050919050565b7f4e487b7100000000000000000000000000000000000000000000000000000000600052603260045260246000fd5b7f676c6f62616c20696e646578206973206f7574206f6620626f756e6473000000600082015250565b6000611626601d83610fb9565b9150611631826115f0565b602082019050919050565b6000602082019050818103600083015261165581611619565b9050919050565b7f6f776e657220717565727920666f72206e6f6e2d6578697374656e7420746f6b60008201527f656e206164647265737300000000000000000000000000000000000000000000602082015250565b60006116b8602a83610fb9565b91506116c38261165c565b604082019050919050565b600060208201905081810360008301526116e7816116ab565b9050919050565b7f4552433732313a204e46542061737369676e656420746f207a65726f2061646460008201527f7265737320636f6e7369646572656420696e76616c6964000000000000000000602082015250565b600061174a603783610fb9565b9150611755826116ee565b604082019050919050565b600060208201905081810360008301526117798161173d565b9050919050565b600081905092915050565b600061179682610fae565b6117a08185611780565b93506117b0818560208601610fca565b80840191505092915050565b60006117c8828461178b565b915081905092915050565b7f4572726f72202d206b727970746f4269726420616c726561647920657869737460008201527f7300000000000000000000000000000000000000000000000000000000000000602082015250565b600061182f602183610fb9565b915061183a826117d3565b604082019050919050565b6000602082019050818103600083015261185e81611822565b9050919050565b7f4e487b7100000000000000000000000000000000000000000000000000000000600052601160045260246000fd5b600061189f826110db565b91506118aa836110db565b9250828210156118bd576118bc611865565b5b828203905092915050565b7f4552433732313a207472616e7366657220746f20746865207a65726f2061646460008201527f7265737300000000000000000000000000000000000000000000000000000000602082015250565b6000611924602483610fb9565b915061192f826118c8565b604082019050919050565b6000602082019050818103600083015261195381611917565b9050919050565b7f6164647265737320646f6573206e6f74206f776e207468697320746f6b656e00600082015250565b6000611990601f83610fb9565b915061199b8261195a565b602082019050919050565b600060208201905081810360008301526119bf81611983565b9050919050565b60006119d1826110db565b91506119dc836110db565b9250827fffffffffffffffffffffffffffffffffffffffffffffffffffffffffffffffff03821115611a1157611a10611865565b5b828201905092915050565b7f4552433732313a206d696e74696e6720746f20746865207a65726f206164647260008201527f6573730000000000000000000000000000000000000000000000000000000000602082015250565b6000611a78602383610fb9565b9150611a8382611a1c565b604082019050919050565b60006020820190508181036000830152611aa781611a6b565b9050919050565b7f4552433732313a20746f6b656e20616c7265616479206d696e74656400000000600082015250565b6000611ae4601c83610fb9565b9150611aef82611aae565b602082019050919050565b60006020820190508181036000830152611b1381611ad7565b905091905056fea2646970667358221220d80bfe3da178aeb11005b4388d5da1a9a73dc71660293afbbedc3492de45a43064736f6c634300080b0033",
  "immutableReferences": {},
  "source": "// SPDX-License-Identifier: MIT\npragma solidity ^0.8.0;\n\nimport './ERC721Connector.sol';\n\ncontract KryptoBird is ERC721Connector {\n\n    string [] public kryptoBirdz;\n\n    mapping(string => bool) _kryptoBirdzExists;\n\n\n    function mint (string memory _kryptoBird) public {\n\n        require(!_kryptoBirdzExists[_kryptoBird],\n        'Error - kryptoBird already exists');\n\n        kryptoBirdz.push(_kryptoBird);\n        uint256 _id = kryptoBirdz.length - 1;\n        _mint(msg.sender, _id);\n        _kryptoBirdzExists[_kryptoBird] = true;\n    }\n\n    constructor() ERC721Connector('KryptoBird', 'KBIRDZ') {\n\n    }\n}",
  "sourcePath": "/Users/khalilshanti/nft-marketplace-starter-kit/src/contracts/KryptoBirdz.sol",
  "compiler": {
    "name": "solc",
    "version": "0.8.11+commit.d7f03943.Emscripten.clang"
  },
  "schemaVersion": "3.4.3",
  "updatedAt": "2022-02-12T19:34:36.788Z",
  "networkType": "ethereum",
  "devdoc": {
    "kind": "dev",
    "methods": {},
    "version": 1
  },
  "userdoc": {
    "kind": "user",
    "methods": {},
    "version": 1
  }
}